:020000040800F2
:100000000000012051280008CD030008CF0300089C
:10001000D1030008D3030008D50300080000000046
:10002000000000000000000000000000810E000839
:10003000D703000800000000210F0008D9030008C2
:10004000A1280008A1280008A1280008A12800086C
:10005000A1280008A1280008A1280008A12800085C
:10006000A1280008A1280008A1280008A12800084C
:10007000A1280008A1280008A1280008A12800083C
:10008000A1280008A1280008A128000800000000FD
:10009000000000000000000000000000A12800088F
:1000A000A1280008A1280008A1280008A12800080C
:1000B000A1280008A1280008A1280008A1280008FC
:1000C000A1280008A1280008A1280008A1280008EC
:1000D000A1280008A1280008A128000800000000AD
:1000E000A1280008A1280008A1280008000000009D
:1000F000000000000000000000000000A12800082F
:1001000000000000A1280008A1280008A12800087C
:1001100000000000000000000000000000000000DF
:10012000A1280008A1280008A1280008A12800088B
:10013000A1280008000000000000000000000000EE
:10014000000000000000000000000000A1280008DE
:10015000A1280008A1280008A1280008A12800085B
:10016000A1280008A12800080000000000000000ED
:10017000000000000000000000000000000000007F
:1001800000000000A128000800000000000000009E
:04019000A12800089A
:1001A00053B94AB9002908BF00281CBF4FF0FF31DE
:1001B0004FF0FF3000F00CB8ADF1080C6DE904CE43
:1001C00002F0AAFBDDF804E0DDE9022304B0704789
:1001D000704700BF10B5054C237833B9044B13B1F9
:1001E0000448AFF300800123237010BD10000020ED
:1001F00000000000E02B000808B5034B1BB10349C9
:100200000348AFF3008008BD000000001400002088
:10021000E02B000808B50B4C01224FF4005120469A
:1002200000F07AFA4FF4FA7001F052FF00224FF416
:100230000051204600F070FA4FF4FA7001F048FFC8
:10024000E9E700BF0008024030B589B000240394FC
:1002500004940594069407940094194B1A6B42F089
:1002600004021A631A6B02F004020092009A0194CD
:100270001A6B42F080021A631A6B02F0800201923C
:10028000019A02941A6B42F001021A631B6B03F08D
:1002900001030293029B0B4D22464FF40051284666
:1002A00000F03AFA4FF400530393012304930594AA
:1002B000069403A9284600F059F909B030BD00BFE3
:1002C000003802400008024072B6FEE700B595B063
:1002D0003022002108A802F0E4FA002303930493DB
:1002E0000593069307930193194A116C41F08051CD
:1002F0001164126C02F080520192019A0293154926
:100300000A6822F4404242F400420A600A6802F499
:1003100040420292029A0222089201220B9210227B
:100320000C920E9308A800F0FDF968B90F2303930F
:100330000021049105910691079103A800F03CFC6F
:1003400020B915B05DF804FBFFF7BEFFFFF7BCFF57
:10035000003802400070004000B583B000F07CF827
:10036000FFF7B4FFFFF770FF002301930222009212
:1003700080220349034801F012FD01F045FDFEE72C
:10038000F82B00081502000800B583B00022009287
:100390000D4B596C41F480415964596C01F4804112
:1003A000009100990192196C41F0805119641B6C05
:1003B00003F080530193019B0F216FF0010000F0C7
:1003C00089F803B05DF804FB00380240FEE7FEE761
:1003D000FEE7FEE7FEE7704708B500F057F801F0CA
:1003E000B5FF012800D108BD00F0CCFDFBE70000FF
:1003F000054BD3F8882042F47002C3F888204FF0F0
:1004000000629A60704700BF00ED00E010B504463E
:100410000E4B1A784FF47A73B3FBF2F30C4A106860
:10042000B0FBF3F000F08EF868B90F2C01D9012071
:100430000AE0002221464FF0FF3000F04BF8054B58
:100440001C60002000E0012010BD00BF040000205F
:10045000000000200800002008B50B4B1A6842F489
:1004600000721A601A6842F480621A601A6842F4D4
:1004700080721A60032000F01BF80F20FFF7C6FF00
:10048000FFF782FF002008BD003C0240034A1168CC
:10049000034B1B780B441360704700BF2C000020F7
:1004A00004000020014B1868704700BF2C0000209A
:1004B000074AD36823F4E0631B041B0C000200F41A
:1004C000E060034343F0BF6343F40033D3607047FD
:1004D00000ED00E000B5194BDB68C3F30223C3F164
:1004E000070CBCF1040F28BF4FF0040C03F1040EFD
:1004F000BEF1060F18D9033B4FF0FF3E0EFA0CFC7D
:1005000021EA0C0199400EFA03FE22EA0E020A4388
:1005100000280BDB1201D2B200F1604000F561400F
:1005200080F800235DF804FB0023E5E700F00F00EE
:100530001201D2B2024B1A54F4E700BF00ED00E002
:1005400014ED00E00138B0F1807F0BD24FF0E023D2
:100550005861054AF02182F8231000209861072293
:100560001A6170470120704700ED00E000230F2B57
:1005700000F2C880F0B583B03AE0042200E0002227
:10058000AA4032430234604D45F824205F4A146883
:100590006FEA0C0224EA0C054E6816F4803F01D085
:1005A0004CEA0405594C2560646802EA04054E686B
:1005B00016F4003F01D04CEA0405544C6560A46871
:1005C00002EA04054E6816F4801F01D04CEA0405C7
:1005D0004E4CA560E46822404D6815F4001F01D020
:1005E0004CEA0402494CE26001330F2B00F2888090
:1005F00001229A400C6804EA020C32EA0404F3D1A6
:100600004C68651E012D03D9112C01D0122C12D17A
:1006100085685E000324B44025EA0405CC68B44034
:100620002C438460446824EA02044A68C2F300123E
:100630009A4022434260C5684FEA430E032202FA01
:100640000EF2D44325EA02058A6802FA0EF22A4322
:10065000C2604A68022A01D0122A0FD1DD0808358B
:1006600050F8257003F00706B6000F22B24027EAC3
:1006700002070A69B2403A4340F825200268144054
:100680004A6802F0030202FA0EF2224302604A684C
:1006900012F0805FA8D0002201921D4A546C44F4ED
:1006A00080445464526C02F480420192019A9C0886
:1006B000A51C154A52F8256003F00305AD000F2272
:1006C000AA4026EA0206134A90423FF458AF02F5C8
:1006D000806290420ED002F5806290420CD002F50A
:1006E000806290420AD002F5806290423FF445AFAA
:1006F000072245E7012243E7022241E703223FE7C1
:1007000003B0F0BD704700BF00380140003C01401D
:1007100000380240000002400AB1816170470904BC
:1007200081617047002800F0DA8170B582B004461C
:10073000036813F0010F3BD09F4B9B6803F00C0341
:10074000042B2CD09C4B9B6803F00C03082B21D06E
:100750006368B3F5803F4FD0B3F5A02F52D0964BCE
:100760001A6822F480321A601A6822F480221A6011
:100770006368002B50D0FFF795FE05468E4B1B6833
:1007800013F4003F14D1FFF78DFE401B6428F5D908
:100790000320ABE1884B5B6813F4800FD8D0864B05
:1007A0001B6813F4003F03D06368002B00F09981AD
:1007B000236813F0020F54D07F4B9B6813F00C0F8B
:1007C0003ED07D4B9B6803F00C03082B33D0E368CD
:1007D000002B68D0794B01221A60FFF763FE0546B3
:1007E000754B1B6813F0020F54D1FFF75BFE401BE3
:1007F0000228F5D9032079E16F4A136843F4803366
:100800001360B5E76C4B1A6842F480221A601A68CC
:1008100042F480321A60ABE7FFF744FE0546664BB0
:100820001B6813F4003FC3D0FFF73CFE401B642855
:10083000F5D903205AE1604B5B6813F4800FC6D1F1
:100840005D4B1B6813F0020F03D0E368012B40F0EF
:100850004A81594A136823F0F803216943EAC10326
:100860001360236813F0080F42D063696BB3534BD6
:100870000122C3F8802EFFF715FE05464E4B5B6F35
:1008800013F0020F34D1FFF70DFE401B0228F5D9FB
:1008900003202BE1484A136823F0F803216943EA57
:1008A000C1031360DDE7454B00221A60FFF7FAFD34
:1008B0000546414B1B6813F0020FD2D0FFF7F2FD43
:1008C000401B0228F5D9032010E13C4B0022C3F85D
:1008D000802EFFF7E7FD0546374B5B6F13F0020FE5
:1008E00006D0FFF7DFFD401B0228F5D90320FDE00D
:1008F000236813F0040F77D02F4B1B6C13F0805F2D
:1009000033D1002301932C4B1A6C42F080521A64AD
:100910001B6C03F080530193019B0125284B1B683E
:1009200013F4807F23D0A368012B34D0052B38D05B
:10093000214B1A6F22F001021A671A6F22F004028B
:100940001A67A368002B3DD0FFF7ACFD06461A4B93
:100950001B6F13F0020F46D1FFF7A4FD801B41F27D
:1009600088339842F3D90320C0E00025D6E7144A23
:10097000136843F480731360FFF794FD0646104B31
:100980001B6813F4807FCED1FFF78CFD801B0228FB
:10099000F5D90320AAE0084A136F43F00103136757
:1009A000CFE7054B1A6F42F004021A671A6F42F044
:1009B00001021A67C5E700BF003802400000474245
:1009C00000700040FFF76EFD06464F4B1B6F13F0A3
:1009D000020F08D0FFF766FD801B41F28833984272
:1009E000F3D9032082E0E5B9A369002B7DD0464A04
:1009F000926802F00C02082A51D0022B17D0434B08
:100A000000221A66FFF74EFD04463F4B1B6813F0A9
:100A1000007F42D0FFF746FD001B0228F5D90320D6
:100A200064E0394A136C23F080531364DCE7374BDE
:100A300000221A66FFF736FD0546334B1B6813F09C
:100A4000007F06D0FFF72EFD401B0228F5D90320BA
:100A50004CE0E369226A1343626A43EA8213A26AA2
:100A60005208013A43EA0243E26A43EA0263264A31
:100A70005360264B01221A66FFF714FD0446224BF1
:100A80001B6813F0007F06D1FFF70CFD001B022846
:100A9000F5D903202AE0002028E0002026E0012BE1
:100AA00026D0194B5B6803F48001E269914221D1A1
:100AB00003F03F02216A8A421ED1616A47F6C07282
:100AC0001A408A421AD103F44032A16A8A4217D1ED
:100AD00003F07063E26A934214D1002006E0012023
:100AE0007047012002E0012000E0002002B070BD4C
:100AF0000120FBE70120F9E70120F7E70120F5E7F6
:100B00000120F3E70120F1E70038024000004742EE
:100B100008B5264B9B6803F00C03042B41D0082B2F
:100B200041D1224B5A6802F03F025B6813F4800FF8
:100B300012D01E4B5968C1F388111D480023A1FB38
:100B40000001FFF72DFB194B5B68C3F30143013331
:100B50005B00B0FBF3F027E0144B5868C0F388103B
:100B60004FEA401CBCEB000C6EEB0E0E4FEA8E13EE
:100B700043EA9C634FEA8C11B1EB0C0163EB0E036B
:100B8000DB0043EA5173C90011EB000C43F1000391
:100B9000990200234FEA8C2041EA9C51FFF700FBA9
:100BA000D1E7034800E0034808BD00BF0038024019
:100BB00040787D010024F400002800F09B8070B58F
:100BC0000D4604464F4B1B6803F00F038B4208D2BF
:100BD000CBB24C4A1370136803F00F038B4240F002
:100BE0008B80236813F0020F17D013F0040F04D08A
:100BF000454A936843F4E0539360236813F0080F69
:100C000004D0414A936843F4604393603E4A93683A
:100C100023F0F003A1680B439360236813F0010FE6
:100C200032D06368012B21D09A1E012A25D9364A79
:100C3000126812F0020F61D033498A6822F0030271
:100C400013438B60FFF72EFC06462F4B9B6803F087
:100C50000C036268B3EB820F16D0FFF723FC801BF6
:100C600041F288339842F0D9032042E0264A1268C4
:100C700012F4003FE0D101203BE0234A126812F059
:100C8000007FD9D1012034E01E4B1B6803F00F0315
:100C9000AB4207D9EAB21B4B1A701B6803F00F0373
:100CA000AB422DD1236813F0040F06D0164A936887
:100CB00023F4E053E1680B439360236813F0080FBB
:100CC00007D0114A936823F46043216943EAC103C2
:100CD0009360FFF71DFF0C4B9B68C3F303130B4A94
:100CE000D35CD8400A4B18600A4B1868FFF78EFB9C
:100CF000002070BD012070470120FAE70120F8E7CD
:100D00000120F6E7003C024000380240FC2B0008BE
:100D10000000002008000020034B0360034B0B6021
:100D200080231360704700BF300200203000002095
:100D3000034B0360034B0B604FF4807313607047E9
:100D40008C0600208C02002000F1080343604FF065
:100D5000FF328260C3600361002303607047002399
:100D60000361704743684B609A688A60516099607C
:100D70000861036801330360704730B40D68B5F152
:100D8000FF3F11D000F108031C465B681A68AA42B5
:100D9000FAD963684B6099608C6061600861036890
:100DA0000133036030BC70470469F2E703694168AE
:100DB00082688A60416851605A68824206D0002287
:100DC00002611A68013A1A601868704782685A60AE
:100DD000F5E7000082B0002301930D4B1B68B3F1CF
:100DE000FF3F08D04FF0500383F31188BFF36F8F9C
:100DF000BFF34F8FFEE74FF0500383F31188BFF32B
:100E00006F8FBFF34F8F019B002BFCD002B0704758
:100E10000C00002008480068006880F308884FF044
:100E2000000080F3148862B661B6BFF34F8FBFF342
:100E30006F8F00DF00BF000008ED00E0DFF80C005E
:100E4000016841F4700101607047000088ED00E026
:100E50004FF0807340F8043C21F0010140F8081C79
:100E6000054B40F80C3C40F8202C6FF0020340F892
:100E7000243C4438704700BFD50D00080000000036
:100E8000074B19680868B0E8F04F80F30988BFF392
:100E90006F8F4FF0000080F311887047AFF3008030
:100EA000484300204FF0500383F31188BFF36F8F46
:100EB000BFF34F8F0B4A136801331360012B00D02F
:100EC00070474FF0E023D3F8043D13F0FF0FF7D045
:100ED0004FF0500383F31188BFF36F8FBFF34F8F31
:100EE000FEE700BF0C000020094B1B6843B94FF020
:100EF000500383F31188BFF36F8FBFF34F8FFEE76B
:100F0000013B034A13600BB983F31188704700BF9C
:100F10000C000020000000000000000000000000A5
:100F2000EFF30980BFF36F8F154B1A681EF0100F97
:100F300008BF20ED108A20E9F04F10602DE909006C
:100F40004FF0500080F31188BFF34F8FBFF36F8FC6
:100F500001F0E4F84FF0000080F3118809BC196833
:100F60000868B0E8F04F1EF0100F08BFB0EC108A10
:100F700080F30988BFF36F8F704700BFAFF3008025
:100F80004843002008B54FF0500383F31188BFF3A6
:100F90006F8FBFF34F8F00F093FF28B14FF0E02326
:100FA0004FF08052C3F8042D002383F3118808BD4D
:100FB0004FF0E022002313619361054B1B68054944
:100FC000A1FB03139B09013B536107231361704786
:100FD00000000020D34D62104FF0E023D3F8002D25
:100FE0003D4B9A421CD04FF0E023D3F8002D3B4BF1
:100FF0009A421ED030B583B0394B1A78D2B20192E2
:10100000FF221A701B78DBB28DF803309DF8033095
:1010100003F05003334A1370334B07221A601BE06E
:101020004FF0500383F31188BFF36F8FBFF34F8FDF
:10103000FEE74FF0500383F31188BFF36F8FBFF3C8
:101040004F8FFEE7284A1368013B13609DF8033079
:101050005B00DBB28DF803309DF8033013F0800F96
:10106000F0D1214B1B68032B08D04FF0500383F3C2
:101070001188BFF36F8FBFF34F8FFEE71B021A4A31
:10108000136003F4E0631360019BDBB2144A137036
:101090004FF0E024D4F8203D43F47003C4F8203D21
:1010A000D4F8203D43F07043C4F8203DFFF780FFA3
:1010B00000250E4B1D60FFF7C1FED4F8343F43F00E
:1010C0004043C4F8343FFFF7A5FE01F027F8FFF7CF
:1010D00081FE284603B030BD71C20F4170C20F417E
:1010E00000E400E0E8060020EC0600200C000020F0
:1010F000EFF305830F2B0FD9114A9B5CDBB2114A2A
:1011000012789A4208D94FF0500383F31188BFF345
:101110006F8FBFF34F8FFEE74FF0E023D3F80C3D06
:1011200003F4E063084A1268934208D94FF0500371
:1011300083F31188BFF36F8FBFF34F8FFEE77047C4
:10114000F0E300E0E8060020EC060020124A12F06E
:10115000070F1ED0D11D21F00701C1F570531344B4
:101160000A460E480260002141601344083B23F008
:1011700007030B48036059601960991A51601360A6
:10118000084B1960084B1960084B4FF000421A6079
:1011900070474FF47053E4E7F4060020004300204A
:1011A000F0060020FC420020F8420020F44200201B
:1011B000164B1A461B688342FBD3516802EB010CA5
:1011C000844509D0416800EB010C634509D00360F8
:1011D000904219D010607047406801445160104639
:1011E000F0E710B40A4C2468A3420BD05B681944A2
:1011F000416013681B680360904200D010605DF886
:10120000044B70470460F7E7704700BF00430020BD
:10121000F006002070B5054600F044FE344B1B6814
:10122000A3B1344B1B681D424AD135B1083515F0C6
:10123000070F02D025F007050835002D42D02E4BB0
:101240001B68AB424DD32D4A146804E0FFF77EFFC4
:10125000E7E722461C466368AB4202D22368002BB4
:10126000F7D1234B1B68A3423DD01668083623688C
:10127000136063685B1B102B10D9601910F0070F07
:1012800008D04FF0500383F31188BFF36F8FBFF383
:101290004F8FFEE743606560FFF78AFF626816497B
:1012A0000B689B1A0B60164909688B4201D21449DE
:1012B0000B60104B1B68134363600023236002E044
:1012C000002600E0002600F087FE16F0070F0CD085
:1012D0004FF0500383F31188BFF36F8FBFF34F8F2D
:1012E000FEE70026EFE70026EDE7304670BD00BFC1
:1012F000F0060020F4420020F842002000430020C5
:10130000FC42002080B338B50446A0F1080550F82F
:10131000043C164A1268134208D14FF0500383F37D
:101320001188BFF36F8FBFF34F8FFEE750F8081C93
:1013300041B14FF0500383F31188BFF36F8FBFF3B8
:101340004F8FFEE723EA020340F8043C00F0AAFDB9
:1013500054F8041C064A13680B4413602846FFF730
:1013600027FF00F039FE38BD704700BFF44200206F
:10137000F842002010B50446FFF794FDA26BE36B22
:101380009A4204D00024FFF7AFFD204610BD01248F
:10139000F9E710B50446FFF785FDA36B23B90124D7
:1013A000FFF7A2FD204610BD0024F9E770B5044602
:1013B0001546866B026C5AB903681BB100200136D2
:1013C000A66370BD806800F0D1FF0023A360F6E73C
:1013D0006DB9406801F092FA226C6368134463604F
:1013E000A268934219D3236863602846E7E7C06880
:1013F00001F084FA226C5142E3689B1AE360226890
:10140000934202D2A3680B44E360022D01D0002076
:10141000D5E726B1013E0020D1E72846CFE70020DE
:10142000CDE70346026C6AB110B50846D96811448D
:10143000D9609C68A14201D31968D960D96801F0CC
:101440005DFA10BD704738B50546FFF72BFD95F8DE
:10145000454064B201E0013C64B2002C0ADD6B6AD5
:1014600043B105F1240000F0D7FE0028F3D000F0CE
:1014700067FFF0E7FF2385F84530FFF735FDFFF7FD
:1014800011FD95F8444064B201E0013C64B2002CC7
:101490000ADD2B6943B105F1100000F0BDFE002804
:1014A000F3D000F04DFFF0E7FF2385F84430FFF75D
:1014B0001BFD38BD38B5E0B10D460446FFF7F2FC20
:1014C0002368E26B216C01FB0230A0600020A06366
:1014D0006360013A02FB0133E360FF2384F8443088
:1014E00084F84530FDB9236963B9FFF7FDFC01209D
:1014F00038BD4FF0500383F31188BFF36F8FBFF3F4
:101500004F8FFEE704F1100000F086FE0028ECD0BB
:101510004FF0E0234FF08052C3F8042DBFF34F8FFC
:10152000BFF36F8FE1E704F11000FFF70DFC04F14A
:101530002400FFF709FCD8E738B51D46049C0B468C
:1015400049B92460E063236401212046FFF7B2FF1C
:1015500084F84C5038BD2260F4E740B94FF0500396
:1015600083F31188BFF36F8FBFF34F8FFEE710B582
:1015700084B01C46844653B192B189B94FF05003F0
:1015800083F31188BFF36F8FBFF34F8FFEE74FF0E8
:10159000500383F31188BFF36F8FBFF34F8FFEE7C4
:1015A0006AB150230393039B502B13D04FF0500389
:1015B00083F31188BFF36F8FBFF34F8FFEE70029CE
:1015C000EFD04FF0500383F31188BFF36F8FBFF359
:1015D0004F8FFEE7039B012384F8463000949DF86B
:1015E00018306046FFF7A8FF204604B010BDF0B5E4
:1015F00085B0019288B10F461D460446B1B1022D57
:1016000020D1E36B012B1DD04FF0500383F31188E1
:10161000BFF36F8FBFF34F8FFEE74FF0500383F39D
:101620001188BFF36F8FBFF34F8FFEE7036C002B62
:10163000E5D04FF0500383F31188BFF36F8FBFF3F2
:101640004F8FFEE700F082FE064658B9019B002B43
:1016500048D04FF0500383F31188BFF36F8FBFF36F
:101660004F8FFEE700263DE02A4639462046FFF729
:101670009DFE636A7BB948B14FF0E0234FF0805282
:10168000C3F8042DBFF34F8FBFF36F8FFFF72CFC10
:10169000012005B0F0BD04F1240000F0BDFD0028DC
:1016A000F4D04FF0E0234FF08052C3F8042DBFF385
:1016B0004F8FBFF36F8FE9E7FFF716FC0020E8E7D5
:1016C00002A800F0EFFD012619E0002384F8443061
:1016D00021E0002384F8453023E02046FFF7B3FEE5
:1016E00000F07AFCFFF7DEFBA26BE36B9A42BBD300
:1016F000022DB9D0019B002BDED0002EE0D0FFF7E9
:10170000F3FB00F0CFFBFFF7CDFB94F8442052B27F
:10171000B2F1FF3FD9D094F8452052B2B2F1FF3F69
:10172000D7D0FFF7E1FB01A902A800F0C7FDD8B9A7
:101730002046FFF71FFE0028CFD0019904F11000CA
:1017400000F036FD2046FFF77EFE00F045FC002845
:10175000C8D14FF0E0234FF08052C3F8042DBFF3FF
:101760004F8FBFF36F8FBDE72046FFF76CFE00F091
:1017700033FC00208DE72DE9F84390B10F46164663
:101780001C460546B1B1022C20D1EB6B012B1DD0BC
:101790004FF0500383F31188BFF36F8FBFF34F8F68
:1017A000FEE74FF0500383F31188BFF36F8FBFF351
:1017B0004F8FFEE7036C002BE5D04FF0500383F30F
:1017C0001188BFF36F8FBFF34F8FFEE7FFF790FCD9
:1017D000EFF311884FF0500383F31188BFF36F8F3D
:1017E000BFF34F8FAA6BEB6B9A4206D3022C04D047
:1017F000002088F31188BDE8F88395F845904FFAEA
:1018000089F9224639462846FFF7D0FDB9F1FF3F56
:1018100006D009F101035BB285F845300120E8E705
:101820006B6A0BB90120E4E705F1240000F0F4FC39
:1018300018B126B101203060DBE70120D9E7012093
:10184000D7E7F0B585B0019290B10F460446C1B11B
:1018500000F07CFD064600BB019B002B5ED04FF0E4
:10186000500383F31188BFF36F8FBFF34F8FFEE7F1
:101870004FF0500383F31188BFF36F8FBFF34F8F87
:10188000FEE7036C002BE3D04FF0500383F3118885
:10189000BFF36F8FBFF34F8FFEE700263EE0394660
:1018A0002046FFF7BEFD013DA563236923B9FFF77D
:1018B0001BFB012005B0F0BD04F1100000F0ACFCF2
:1018C0000028F4D04FF0E0234FF08052C3F8042DED
:1018D000BFF34F8FBFF36F8FE9E7FFF705FB0020E2
:1018E000E8E702A800F0DEFC012621E0002384F8EE
:1018F000443029E0002384F845302BE02046FFF7F0
:10190000A2FD00F069FB09E02046FFF79CFD00F016
:1019100063FB2046FFF73DFD00283FD1FFF7C2FAE9
:10192000A56B002DBBD1019B002BD6D0002ED8D0AB
:10193000FFF7DAFA00F0B6FAFFF7B4FA94F8443099
:101940005BB2B3F1FF3FD1D094F845305BB2B3F155
:10195000FF3FCFD0FFF7C8FA01A902A800F0AEFC04
:101960000028D1D12046FFF714FD0028C6D00199E8
:1019700004F1240000F01CFC2046FFF764FD00F099
:101980002BFB0028CAD14FF0E0234FF08052C3F860
:10199000042DBFF34F8FBFF36F8FBFE7002089E7A0
:1019A0000023072B0CD8074A52F833200AB1013321
:1019B000F7E7044A42F8331002EBC3025060704765
:1019C000704700BF0843002070B504460D46164618
:1019D000FFF768FA94F844305BB2B3F1FF3F0DD0E3
:1019E00094F845305BB2B3F1FF3F0BD0FFF77CFAC0
:1019F000A36B5BB12046FFF726FD70BD002384F882
:101A00004430EDE7002384F84530EFE732462946BD
:101A100004F1240000F0E4FBECE70000084B1B6835
:101A20001B6823B9074B4FF0FF321A607047044B15
:101A30001B68DB68DB685A68024B1A60704700BF9E
:101A40004C430020F84700202DE9F04780460D4622
:101A500017469946089EDDF824A00A9C9200A5210D
:101A6000206B00F01EFF236B07F18042013A03EB6D
:101A7000820727F00707A5B34FF0000CBCF10F0F4A
:101A800009D815F80C3004EB0C0282F8343013B18D
:101A90000CF1010CF2E7002384F84330372E00D913
:101AA0003726E662E66400252565201DFFF757F915
:101AB00004F11800FFF753F92461C6F13806A66156
:101AC0006462656584F858504A4641463846FFF7D7
:101AD000BFF92060BAF1000F01D0CAF80040BDE89C
:101AE000F087002384F83430D8E7000038B50024AC
:101AF00007E004EB840293000E481844FFF724F932
:101B00000134372CF5D90C4D2846FFF71DF90B4C45
:101B10002046FFF719F90A48FFF716F90948FFF7B9
:101B200013F90948FFF710F9084B1D60084B1C60BA
:101B300038BD00BF54430020CC470020E0470020C0
:101B4000004800202C480020184800204C4300206A
:101B50005043002010B50446FFF7A4F9224A136849
:101B600001331360214B1B685BB1214B1B686BB9C0
:101B70001E4B1B68DA6AE36A9A4207D81B4B1C604B
:101B800004E01A4B1C601368012B29D0194A136812
:101B9000013313606364E06A174B1B68984201D9F4
:101BA000154B186000EB8000211D144B03EB8000E7
:101BB000FFF7D8F8FFF798F90D4B1B687BB10B4B7B
:101BC0001B68DA6AE36A9A4209D24FF0E0234FF0C9
:101BD0008052C3F8042DBFF34F8FBFF36F8F10BD3A
:101BE000FFF784FFD2E700BFB4470020484300203E
:101BF00014480020C4470020C84700205443002058
:101C000010B5044690F8593063B1012B11D0022B66
:101C10000ED04FF0500383F31188BFF36F8FBFF3E3
:101C20004F8FFEE7006BFFF76DFB2046FFF76AFB67
:101C300010BDFFF767FBFBE70F4B1B68D3B110B577
:101C4000FFF730F90D4BDB68DC68201DFFF7AEF8BD
:101C50000B4A1368013B1360074A1368013B13608A
:101C6000FFF742F92046FFF7CBFF034B1B68002B21
:101C7000E6D110BD704700BFB84700202C480020B7
:101C8000B447002008B5FFF7D7FF074B1B68012BAF
:101C9000F9D94FF0E0234FF08052C3F8042DBFF381
:101CA0004F8FBFF36F8FEEE75443002070B50446AB
:101CB0000D46174B1E68174B18680430FFF776F86F
:101CC000B4F1FF3F0DD03444124B1B685C60A64258
:101CD00010D9114B18680F4B19680431FFF74DF8F4
:101CE00070BD002DEFD00B4B196804310B48FFF786
:101CF00039F8F5E70A4B1868064B19680431FFF705
:101D00003CF8084B1B68A342EAD9064B1C60E7E786
:101D1000404800204843002050430020184800203D
:101D20004C430020F847002030B587B00B9C7CB1B5
:101D30000C9DB5B15C250495049D5C2D1AD04FF027
:101D4000500383F31188BFF36F8FBFF34F8FFEE70C
:101D50004FF0500383F31188BFF36F8FBFF34F8FA2
:101D6000FEE74FF0500383F31188BFF36F8FBFF38B
:101D70004F8FFEE7049D0C9D2C63022485F859408B
:101D800000240394029505AC01940A9C0094FFF78B
:101D90005BFE0C98FFF7DEFE059807B030BD2DE91D
:101DA000F04385B00746884614461E469000FFF76C
:101DB00031FA00B381465C20FFF72CFA0546B0B13A
:101DC000C0F83090E5B1002385F8593003930295AF
:101DD0000D9B01930C9B00933346224641463846A7
:101DE000FFF732FE2846FFF7B5FE012005E0484622
:101DF000FFF788FAE6E74FF0FF3005B0BDE8F08363
:101E00004FF0FF30F9E7000010B588B000240594CA
:101E1000069407AA06A905A8FEF77EFF059B029374
:101E2000069B019300942346079A18491848FFF728
:101E30007BFF184B186040B100F04CFB012806D026
:101E4000B0F1FF3F18D008B010BD0020F6E74FF00A
:101E5000500383F31188BFF36F8FBFF34F8F0E4B87
:101E60004FF0FF321A600D4B01221A600C4B00221A
:101E70001A60FFF7B1F8E6E74FF0500383F31188DB
:101E8000BFF36F8FBFF34F8FFEE700BF0C2C00082E
:101E9000851C0008F4470020F84700201448002063
:101EA00040480020024A136801331360704700BFA6
:101EB000C0470020014B1868704700BF4048002011
:101EC000F8B53A4B1B68002B64D1394B1D680135BE
:101ED0001D60C5B9374B1B681B6843B14FF05003F9
:101EE00083F31188BFF36F8FBFF34F8FFEE7314A43
:101EF0001168314B186810601960304A136801335B
:101F00001360FFF78BFD2E4B1B68AB4238D90027BF
:101F10002C4B1B68DB6A03EB83039A002A4B9B580C
:101F2000012B3CD901273AE00127224B1B681B6893
:101F300043B3204B1B68DB68DC6863689D4226D393
:101F4000261D3046FEF732FFA36A1BB104F11800CC
:101F5000FEF72CFFE36A1D4A1268934201D91B4A1F
:101F6000136003EB83039A00314617481044FEF7D1
:101F7000F9FEE26A134B1B68DB6A9A42D4D2D4E7BB
:101F80000027D2E70E4B4FF0FF321A60C0E70C4A31
:101F90001360BDE70E4A13680133136000270D4B31
:101FA0001B6803B101273846F8BD00BFC0470020B9
:101FB000404800204C43002050430020FC470020B4
:101FC000F84700204843002054430020C847002021
:101FD000BC4700204448002038B5354B1B6843B946
:101FE0004FF0500383F31188BFF36F8FBFF34F8F10
:101FF000FEE7FEF757FF2E4B1A68013A1A601B687E
:10200000002B4FD12B4B1B680BB900244BE0002455
:10201000294B1B681BB3284BDB68DC6804F11800F4
:10202000FEF7C4FE251D2846FEF7C0FEE06A234BDE
:102030001B68984201D9214B186000EB80002946AB
:102040001F4B03EB8000FEF78DFEE26A1D4B1B6801
:10205000DB6A9A42DCD31C4B01221A60D8E70CB130
:10206000FFF7DCFC194B1C6884B9174B1C68D4B112
:102070004FF0E0234FF08052C3F8042DBFF34F8F91
:10208000BFF36F8F01240EE0013C07D0FFF718FF6C
:102090000028F9D00C4B01221A60F5E70B4B002207
:1020A0001A60E2E70024FEF71FFF204638BD00BF9C
:1020B000C0470020B447002000480020C847002047
:1020C000544300204843002044480020BC470020DF
:1020D00010B5A8B10446104B1B6843B14FF0500334
:1020E00083F31188BFF36F8FBFF34F8FFEE7FFF7C6
:1020F000D9FE00212046FFF7D9FDFFF76DFF48B953
:102100004FF0E0234FF08052C3F8042DBFF34F8F00
:10211000BFF36F8F10BD00BFC04700201F4B1B686F
:102120001BB11F4B01221A6070471D4B00221A6021
:102130001C4B1B6803EB83018A001B498A585AB960
:102140000BB1013BF6E74FF0500383F31188BFF367
:102150006F8FBFF34F8FFEE703EB830082000A44CB
:1021600050684068506003EB830C4FEA8C020832E1
:10217000114488420BD003EB830291000A4A0A44BF
:102180005268D168094A1160064A13607047406876
:1021900062469100044A0A445060ECE7C0470020C0
:1021A00044480020C84700205443002048430020F2
:1021B00058B110B50C46094A11681831FEF7DDFD1B
:1021C00001212046FFF772FD10BD4FF0500383F34D
:1021D0001188BFF36F8FBFF34F8FFEE74843002096
:1021E00038B570B10D4614460A4A11681831FEF729
:1021F000B9FD0CB14FF0FF3521462846FFF756FDDB
:1022000038BD4FF0500383F31188BFF36F8FBFF3D6
:102210004F8FFEE74843002038B5C368DC6824B31D
:1022200004F118052846FEF7C1FD184B1B682BBBAF
:10223000251D2846FEF7BAFDE06A154B1B6898423B
:1022400001D9134B186000EB80002946114B03EBBA
:102250008000FEF787FDE26A0F4B1B68DB6A9A423B
:1022600011D901200D4B186038BD4FF0500383F396
:102270001188BFF36F8FBFF34F8FFEE729460848E1
:10228000FEF770FDE7E70020EEE700BFC047002043
:10229000C847002054430020484300204448002001
:1022A00000480020034B1B680360034B1B6843601E
:1022B000704700BFFC47002040480020F8B5C8B177
:1022C0000C460546F9B1FEF7EDFD1B4B19686B682E
:1022D000C81A2268B2F1FF3F26D0184E36682F6820
:1022E000B74201D08B4224D9824215D80023236003
:1022F00001241AE04FF0500383F31188BFF36F8F6E
:10230000BFF34F8FFEE74FF0500383F31188BFF305
:102310006F8FBFF34F8FFEE75B1A1344236028468D
:10232000FFF7C0FF002400E00024FEF7DDFD20469B
:10233000F8BD0124F9E700BF40480020FC47002019
:10234000014B01221A60704744480020054B1B686E
:1023500033B1054B1B680BB100207047022070475A
:102360000120704714480020C047002000283BD0BF
:1023700038B504461E4B1B68834208D04FF050030B
:1023800083F31188BFF36F8FBFF34F8FFEE7036DA9
:1023900043B94FF0500383F31188BFF36F8FBFF33E
:1023A0004F8FFEE7013B0365C16AC26C91421DD0AD
:1023B0000BB1002038BD051D2846FEF7F7FCE06C88
:1023C000E062C0F13803A3610A4B1B68984201D94F
:1023D000084B186000EB80002946074B03EB800098
:1023E000FEF7C0FC0120E5E7002070470020E1E790
:1023F00048430020C847002054430020064B1A6879
:1024000013682BB90123036023B9D3681868704798
:102410000023F8E7002070474848002008B54160D5
:10242000006191420CD8D21A83699A4201D30120EB
:1024300008BD011D094B1868FEF79FFC0020F7E757
:102440009A4201D2994206D2011D054B1868FEF747
:1024500094FC0020ECE70120EAE700BF4C48002094
:102460004848002030B583B0FEF71CFD114B1B68B7
:102470001BB1FEF739FD03B030BD0F4D2846FEF706
:1024800063FC0E4C2046FEF75FFC0D4B1D600D4BB0
:102490001C60002300930C4B0C4A10210A20FFF70C
:1024A0005CF8044B18600028E3D00949FFF778FA7C
:1024B000DFE700BF6C490020F048002004490020FD
:1024C000484800204C4800201C490020504800206B
:1024D000142C000810B588B0FFF7C4FF124B1B681E
:1024E000CBB100240594069407AA06A905A8FEF717
:1024F0001FFC059B0293069B019302230093234636
:10250000079A0A490A48FFF70FFC0A4B186010B1F6
:10251000012008B010BD4FF0500383F31188BFF3C2
:102520006F8FBFF34F8FFEE76C4900201C2C000813
:102530003928000870490020B8B19C460346184865
:10254000006858B300B585B0009101920293052947
:102550001CDCFFF7FBFE022810D000231A46694658
:102560000F480068FFF743F815E04FF0500383F37E
:102570001188BFF36F8FBFF34F8FFEE70023069ADA
:10258000694607480068FFF732F804E00023624616
:102590006946FFF7F0F805B05DF804FB00207047CE
:1025A0006C49002070B582B01B4B1B681A6862B37F
:1025B000DB681E68DC68251D2846FEF7F7FB236AEA
:1025C0002046984794F8283013F0040FECD0A36904
:1025D00033449E4207D26360246129460E4B18683B
:1025E000FEF7CBFBE0E7002100910B463246204688
:1025F000FFF7A2FF0028D7D14FF0500383F31188D3
:10260000BFF36F8FBFF34F8FFEE7044A1068024994
:102610000860136002B070BD484800204C4800209C
:1026200038B50546FFF746FC0446074B1B68834256
:1026300005D800232B60044B1C60204638BDFFF7F3
:10264000B1FF01232B60F6E71849002070B582B076
:1026500006460D4617490968C968CC68201DFEF773
:10266000A5FB94F828C01CF0040F08D12CF0010C35
:1026700084F828C0236A2046984702B070BDA1693B
:1026800033462A4631442046FFF7C8FE0028F1D0E1
:10269000002100910B4632462046FFF74DFF0028EF
:1026A000E8D14FF0500383F31188BFF36F8FBFF36E
:1026B0004F8FFEE74848002070B582B006460C46B2
:1026C000FFF7F0FB01A8FFF7ABFF019B33BB05460B
:1026D0000CB9B04219D224B1124A12681268DAB9A0
:1026E00001242246711B104B1868FFF76DF9FFF7A4
:1026F00073FCA8B94FF0E0234FF08052C3F8042DCB
:10270000BFF34F8FBFF36F8F0AE0FFF765FC2946D9
:102710003046FFF79BFF03E01C46E2E7FFF75CFC57
:1027200002B070BD4C4800206C49002010B588B044
:1027300002E0049B002B0FDA002204A93D4B18682D
:10274000FFF77FF8002873D0049B002BF1DA07997C
:102750000698059B9847ECE7069C636913B1201D1A
:10276000FEF724FB03A8FFF75BFF049B092BE3D8CC
:10277000DFE803F00505053037500505303794F8DC
:10278000283043F0010384F82830059BA1690246F4
:1027900019442046FFF742FE0028CDD0236A204688
:1027A000984794F8283013F0040FC5D0A26900218F
:1027B00000910B46059802442046FFF7BDFE002815
:1027C000BAD14FF0500383F31188BFF36F8FBFF37B
:1027D0004F8FFEE794F8283023F0010384F8283067
:1027E000AAE794F8283043F0010384F828300599CB
:1027F000A16131B10346024601442046FFF70EFEB7
:102800009AE74FF0500383F31188BFF36F8FBFF344
:102810004F8FFEE794F8283013F0020F04D023F016
:10282000010384F8283087E72046FEF76BFD83E735
:1028300008B010BD6C49002000B583B001A8FFF7B7
:10284000DDFD0199FFF738FFFFF770FFF6E70000A5
:10285000DFF834D0002103E00C4B5B5843500431C7
:102860000B480C4B42189A42F6D30B4A02E0002365
:1028700042F8043B094B9A42F9D3FDF7B9FD00F049
:1028800019F8FDF769FD704700000120342C00089D
:1028900000000020100000201000002074490020DB
:1028A000FEE702440346934200D1704703F8011B40
:1028B000F9E7000070B50D4D0D4C641BA410002607
:1028C000A64209D10B4D0C4C00F08AF9641BA410F0
:1028D0000026A64205D170BD55F8043B9847013645
:1028E000EEE755F8043B98470136F2E72C2C000838
:1028F0002C2C00082C2C0008302C00080A44914293
:1029000000F1FF3300D1704710B511F8014B03F807
:10291000014F9142F9D110BD2DE9F047089E0D46B7
:1029200004460F46002B4AD18A42944665D9B2FA32
:1029300082F343B102FA03FCC3F120029F4020FA64
:1029400002F217439C404FEA1C4E1FFA8CF5B7FB6E
:10295000FEF1220C0EFB117742EA074201FB05F063
:1029600090420AD91CEB020201F1FF3780F01C8172
:10297000904240F2198102396244121AA4B2B2FBA9
:10298000FEF00EFB102244EA024400FB05F5A542CE
:102990000AD91CEB040400F1FF3280F00781A54244
:1029A00040F204816444023840EA0140641B002183
:1029B0001EB1DC400023C6E90043BDE8F0878B422E
:1029C00008D9002E00F0ED800021C6E90005084678
:1029D000BDE8F087B3FA83F1002949D1AB4202D3B5
:1029E000824200F2F880841A65EB03020120174648
:1029F000002EE2D0C6E90047DFE702B9FFDEB2FAF7
:102A000082F3002B40F090808A1A4FEA1C471FFA8D
:102A10008CFE0121B2FBF7F507FB1520220C42EAE0
:102A200000420EFB05F0904208D91CEB020205F1B2
:102A3000FF3802D2904200F2CB804546121AA4B26F
:102A4000B2FBF7F007FB102244EA02440EFB00FE43
:102A5000A64508D91CEB040400F1FF3202D2A645BA
:102A600000F2BB801046A4EB0E0440EA05409FE74D
:102A7000C1F120078B4022FA07FC4CEA030C05FA4F
:102A800001F420FA07F3FD404FEA1C492343B5FB4C
:102A9000F9F81FFA8CFE09FB18551C0C44EA054492
:102AA00008FB0EF5A54202FA01F200FA01F00BD97B
:102AB0001CEB040408F1FF3A80F08880A54240F244
:102AC0008580A8F102086444641B9DB2B4FBF9F34D
:102AD00009FB134445EA044403FB0EFEA64508D94E
:102AE0001CEB040403F1FF356CD2A6456AD9023B06
:102AF000644443EA0843A3FB0295A4EB0E04AC42F2
:102B0000C846AE4656D353D056B1B0EB080264EB7C
:102B10000E0404FA07F7CA40CC401743C6E9007414
:102B200018460021BDE8F087C3F1200102FA03FC3A
:102B300020FA01F225FA01F19D402A434FEA1C4791
:102B40001FFA8CFEB1FBF7F007FB1015110C41EAE0
:102B5000054100FB0EF58D4204FA03F408D91CEB85
:102B6000010100F1FF382FD28D422DD90238614486
:102B7000491B92B2B1FBF7F507FB151142EA01427E
:102B800005FB0EF1914208D91CEB020205F1FF385A
:102B900016D2914214D9023D6244521A45EA0041CC
:102BA00038E73146304608E73946E6E61046FBE6A8
:102BB0004845A9D2B9EB020865EB0C0E013BA3E72F
:102BC0004546EAE72B4694E74046D1E7D0467BE707
:102BD000023D624432E708460AE76444023842E7AD
:102BE000F8B500BFF8BC08BC9E467047F8B500BFFA
:082BF000F8BC08BC9E467047CA
:102BF8004C454400000000000000000001020304EE
:102C08000607080949444C4500000000546D7251FC
:0C2C180000000000546D72205376630031
:082C2400F4FCFF7F0100000039
:042C2C00F9010008A2
:042C3000D5010008C2
:102C34000024F4000100000010000000AAAAAAAABF
:040000050800285176
:00000001FF
