:020000040800F2
:1000000000280020310C000881020008830200084B
:10001000850200088702000889020008000000002D
:100020000000000000000000000000008B0200083B
:100030008D020008000000008F02000891020008F5
:10004000790C0008790C0008790C0008790C00087C
:10005000790C0008790C0008790C0008790C00086C
:10006000790C0008790C0008790C0008790C00085C
:10007000790C0008790C0008790C0008790C00084C
:10008000790C0008790C0008790C0008790C00083C
:10009000790C0008790C0008790C0008790C00082C
:1000A000790C0008790C0008790C0008790C00081C
:1000B000790C0008790C000800000000790C000899
:1000C000790C00080000000000000000790C000816
:1000D00000000000790C0008790C00080000000006
:1000E000790C0008790C0008790C00080000000069
:1000F0000000000000000000000000000000000000
:0C01000000000000000000005FF808F1A3
:10010C0010B5054C237833B9044B13B10448AFF345
:10011C0000800123237010BD0C00002000000000A3
:10012C00D40C000808B5034B1BB103490348AFF3CB
:10013C00008008BD0000000010000020D40C000856
:10014C0030B589B000240494059406940794184B98
:10015C009A6942F010029A619A6902F010020192B7
:10016C00019A9A6942F020029A619A6902F020027F
:10017C000292029A9A6942F004029A619B6903F016
:10018C0004030393039B0B4D22464FF40051284666
:10019C0000F036FA4FF400530493012305930694B0
:1001AC000223079304A9284600F01AF909B030BDC0
:1001BC00001002400010014072B6FEE700B591B08D
:1001CC002822002106A800F052FD0023019302937F
:1001DC00039304930593012206924FF48033079303
:1001EC000A9202220D920E934FF400230F9306A84D
:1001FC0000F022FA78B90F23019302230293002313
:10020C00039304930593012101A800F055FC20B938
:10021C0011B05DF804FBFFF7CFFFFFF7CDFF08B57A
:10022C0000F05CF8FFF7CAFFFFF78AFFFEE700005B
:10023C0082B00E4B9A6942F001029A619A6902F0FF
:10024C0001020092009ADA6942F08052DA61DB69AD
:10025C0003F080530193019B054A536823F0E0633C
:10026C0043F00073536002B0704700BF00100240AF
:10027C0000000140FEE7FEE7FEE7FEE7FEE7704701
:10028C007047704708B500F03BF808BD7047000098
:10029C0010B504460E4B1A784FF47A73B3FBF2F395
:1002AC000C4A1068B0FBF3F000F086F868B90F2C1C
:1002BC0001D901200AE0002221464FF0FF3000F066
:1002CC0043F8054B1C60002000E0012010BD00BF6E
:1002DC0004000020000000200800002008B5074A98
:1002EC00136843F010031360032000F01BF8002088
:1002FC00FFF7CEFFFFF79CFF002008BD0020024057
:10030C00034A1168034B1B780B441360704700BF02
:10031C002800002004000020014B1868704700BF23
:10032C0028000020074AD36823F4E0631B041B0C4D
:10033C00000200F4E060034343F0BF6343F4003376
:10034C00D360704700ED00E000B5194BDB68C3F3D8
:10035C000223C3F1070CBCF1040F28BF4FF0040CAF
:10036C0003F1040EBEF1060F18D9033B4FF0FF3E0C
:10037C000EFA0CFC21EA0C0199400EFA03FE22EA5B
:10038C000E020A4300280BDB1201D2B200F16040CE
:10039C0000F5614080F800235DF804FB0023E5E7DD
:1003AC0000F00F001201D2B2024B1A54F4E700BF56
:1003BC0000ED00E014ED00E00138B0F1807F0BD2CD
:1003CC004FF0E0235861054AF02182F823100020F9
:1003DC00986107221A6170470120704700ED00E018
:1003EC0070B582B00024A4468BE07F4DAB4210D098
:1003FC0007D97E4DAB420CD005F58035AB4208D009
:10040C0015E0A5F58015AB4203D005F57025AB4280
:10041C0009D18B68002B00F0BF80012B00F0B78056
:10042C004261082403E0A5F58015AB42F1D0BEF182
:10043C00FF0F00F2B3800646BEF1FF0F00F2B08052
:10044C004FEA8C0233680F25954023EA050304FA22
:10045C0002F2134333604B6813F0805F4FD0644B50
:10046C009A6942F001029A619B6903F001030193BE
:10047C00019B4FEA9C02951C5E4B53F825600CF0D7
:10048C000305AD000F23AB4026EA03065A4B9842F6
:10049C0000F08C8003F58063984200F0898003F5AE
:1004AC008063984200F080800323AB4033430232D8
:1004BC00504D45F822304B6813F4803F7AD04F4AA8
:1004CC00136843EA0E0313604B6813F4003F77D0B4
:1004DC004A4A536843EA0E0353604B6813F4801F77
:1004EC0074D0464A936843EA0E0393604B6813F446
:1004FC00001F71D0414AD36843EA0E03D3600CF15C
:10050C00010C0B6833FA0CF26CD0012202FA0CF2DB
:10051C0003EA020E32EA0303F1D14B68122B3FF6C9
:10052C0064AF122B83D801A555F823F01F040008E3
:10053C00850500088F050008A10500083B0400088C
:10054C003B0400083B0400083B0400083B04000883
:10055C003B0400083B0400083B0400083B04000873
:10056C003B0400083B0400083B0400083B04000863
:10057C008905000895050008CC6858E7CC68043458
:10058C0055E7CC68083452E7CC680C344FE702616D
:10059C0008244CE700244AE7042448E7061D4BE7EF
:1005AC00ACF1080292004DE702237EE700237CE7C2
:1005BC0001237AE7114A136823EA0E03136083E7D9
:1005CC000E4A536823EA0E03536086E70B4A93687E
:1005DC0023EA0E03936089E7084AD36823EA0E03E3
:1005EC00D3608CE702B070BD000022100000311007
:1005FC0000100240000001400008014000040140CE
:10060C000AB10161704709040161704782B0084B5F
:10061C001B68084AA2FB03235B0A00FB03F301934C
:10062C0000BF019B5A1E0192002BF9D102B07047FA
:10063C0000000020D34D6210002800F0F18170B54D
:10064C0082B00446036813F0010F2CD0994B5B6801
:10065C0003F00C03042B1DD0964B5B6803F00C03CA
:10066C00082B12D06368B3F5803F41D0002B55D1D5
:10067C0003F1804303F504331A6822F480321A60C4
:10068C001A6822F480221A6037E08A4B5B6813F4F4
:10069C00803FE7D0874B1B6813F4003F03D063689F
:1006AC00002B00F0BF81236813F0020F75D0814B33
:1006BC005B6813F00C0F5FD07E4B5B6803F00C0390
:1006CC00082B54D02369002B00F08A807A4B01222E
:1006DC001A60FFF721FE0546764B1B6813F0020FDC
:1006EC0075D1FFF719FE401B0228F5D903209EE1B6
:1006FC00704A136843F480331360636843B3FFF7A5
:10070C000BFE05466B4B1B6813F4003FCBD1FFF778
:10071C0003FE401B6428F5D9032088E1B3F5A02F14
:10072C0009D0644B1A6822F480321A601A6822F4D9
:10073C0080221A60E1E703F18043A3F53C331A6889
:10074C0042F480221A601A6842F480321A60D4E7AC
:10075C00FFF7E2FD0546574B1B6813F4003FA2D090
:10076C00FFF7DAFD401B6428F5D903205FE1514BFC
:10077C005B6813F4803FA5D14E4B1B6813F0020F3E
:10078C0003D02369012B40F04F814A4A136823F0B0
:10079C00F803616943EAC1031360236813F0080F7F
:1007AC0033D0A369002B5CD0434B0122C3F88024C7
:1007BC00FFF7B2FD05463F4B5B6A13F0020F21D1E8
:1007CC00FFF7AAFD401B0228F5D903202FE1394A77
:1007DC00136823F0F803616943EAC1031360DCE793
:1007EC00354B00221A60FFF797FD0546314B1B680D
:1007FC0013F0020FD1D0FFF78FFD401B0228F5D963
:10080C00032014E10120FFF701FF236813F0040F0C
:10081C0000F09680274BDB6913F0805F34D1254BB9
:10082C00DA6942F08052DA61DB6903F0805301939C
:10083C00019B0125214B1B6813F4807F26D0E368B4
:10084C00012B3DD0002B53D103F1804303F504332E
:10085C001A6A22F001021A621A6A22F004021A625F
:10086C0033E0154B0022C3F88024FFF755FD0546F5
:10087C00104B5B6A13F0020FC7D0FFF74DFD401B06
:10088C000228F5D90320D2E00025D3E70B4A1368E0
:10089C0043F480731360FFF73FFD0646074B1B685C
:1008AC0013F4807FCBD1FFF737FD801B6428F5D97B
:1008BC000320BCE0001002400000424200700040E7
:1008CC005F4A136A43F001031362E36833B3FFF723
:1008DC0023FD06465A4B1B6A13F0020F2FD1FFF76C
:1008EC001BFD801B41F288339842F3D903209EE014
:1008FC00052B09D0524B1A6A22F001021A621A6AAD
:10090C0022F004021A62E0E74D4B1A6A42F004022C
:10091C001A621A6A42F001021A62D6E7FFF7FCFC6F
:10092C000646474B1B6A13F0020F08D0FFF7F4FC86
:10093C00801B41F288339842F3D9032077E0E5B964
:10094C00E369002B72D03E4A526802F00C02082A6E
:10095C0056D0022B17D03B4B00221A66FFF7DCFC5B
:10096C000446374B1B6813F0007F47D0FFF7D4FCCD
:10097C00001B0228F5D9032059E0314AD36923F032
:10098C008053D361DCE72F4B00221A66FFF7C4FCBF
:10099C0005462B4B1B6813F0007F06D0FFF7BCFC01
:1009AC00401B0228F5D9032041E0236AB3F5803FB0
:1009BC001AD023494B6823F47413226A606A0243E9
:1009CC0013434B601F4B01221A66FFF7A5FC04462C
:1009DC001B4B1B6813F0007F0ED1FFF79DFC001B17
:1009EC000228F5D9032022E0154A536823F400337A
:1009FC00A1680B435360DCE7002018E0002016E0F0
:100A0C00012B16D00E4B5B6803F48031226A9142A5
:100A1C0011D103F47013626A93420ED1002006E0E8
:100A2C0001207047012002E0012000E0002002B00C
:100A3C0070BD0120FBE70120F9E70120F7E700BFBB
:100A4C00001002400000424286B0174B0FCB0DF154
:100A5C00180C0CE90F0040F20123ADF80430134BD5
:100A6C005B6803F00C02082A02D0114806B07047EC
:100A7C00C3F3834218326A4412F8100C13F4803F0B
:100A8C000DD00A4B5B68C3F3404318336B4413F827
:100A9C00143C074A02FB00F0B0FBF3F0E6E7054B11
:100AAC0003FB00F0E2E700BFFC0C00080010024062
:100ABC0000127A0000093D00002800F0A08070B5FB
:100ACC000D460446524B1B6803F007038B420BD2B6
:100ADC004F4A136823F007030B431360136803F0AA
:100AEC0007038B4240F08D80236813F0020F17D060
:100AFC0013F0040F04D0474A536843F4E063536087
:100B0C00236813F0080F04D0424A536843F460532F
:100B1C005360404A536823F0F003A1680B435360C1
:100B2C00236813F0010F31D06368012B20D0022B06
:100B3C0025D0384A126812F0020F64D035494A6841
:100B4C0022F0030213434B60FFF7E6FB0646314BE2
:100B5C005B6803F00C036268B3EB820F16D0FFF7EF
:100B6C00DBFB801B41F288339842F0D9032045E02F
:100B7C00284A126812F4003FE0D101203EE0254AD9
:100B8C00126812F0007FD9D1012037E0204B1B688E
:100B9C0003F00703AB420AD91D4A136823F007037D
:100BAC002B431360136803F00703AB422DD123686A
:100BBC0013F0040F06D0174A536823F4E063E1687E
:100BCC000B435360236813F0080F07D0114A536886
:100BDC0023F46053216943EAC1035360FFF734FFE8
:100BEC000C4B5B68C3F303130B4AD35CD8400B4B21
:100BFC0018600B4B1868FFF74BFB002070BD0120F1
:100C0C0070470120FAE70120F8E70120F6E700BF62
:100C1C000020024000100240EC0C000800000020F4
:100C2C00080000200C480D490D4A002302E0D4585E
:100C3C00C4500433C4188C42F9D30A4A0A4C00231A
:100C4C0001E013600432A242FBD3FFF71FFB00F05C
:100C5C0017F8FFF7E4FA7047000000200C000020A2
:100C6C00180D00080C0000202C000020FEE70346A5
:100C7C000244934200D1704703F8011BF9E70000CE
:100C8C0070B500260C4D0D4C641BA410A64209D166
:100C9C0000F01AF800260A4D0A4C641BA410A64258
:100CAC0005D170BD55F8043B98470136EEE755F871
:100CBC00043B98470136F2E7100D0008100D0008B0
:100CCC00100D0008140D0008F8B500BFF8BC08BCE6
:100CDC009E467047F8B500BFF8BC08BC9E467047EE
:100CEC0000000000000000000102030406070809D0
:100CFC0002030405060708090A0B0C0D0E0F101051
:040D0C0000000000E3
:040D100031010008A5
:040D14000D010008C5
:0C0D18000024F4000100000010000000A6
:0400000508000C31B2
:00000001FF
